:080003003735373535322D0089
:0405C50041000800E9
:10057F00120630E4FDFFFE1205561205DF9000094A
:10058F00E060FA7B017A00790912043DE4900009DA
:03059F00F080EAFF
:10055600AB07AA06EAC4F854F0C8EBC4540F48F532
:1005660080AF03EFC454F0F5A0ED540F42A0C2B51E
:09057600000000D2B543A00F22E1
:0505C9004200240000C7
:0C06300075AF8112061612065102065A20
:07065A00D2ACD2A9D2AF22FD
:0A064700759E83E4F59DFE7F0122FD
:090651007598D012060902064753
:0D060900E4F588758901758AFF758CF02273
:0D0616007580FFE4F59075A00F75B0E3222C
:0B063C0000EF1F70011EEF4E70F62251
:0D06230000ED1D70011CED4C70F6DFF4229F
:1005CE0041002200410020004100210041001F0097
:0300230002025E78
:10025E00C0E0C0F0C083C082C0D075D000C000C066
:0D026E0001C002C003C004C005C006C007E7
:10027B00C200309843E4FFFE12000E900022E59975
:10028B00F0A29A9200C298E0FF1204FAEF700330CA
:10029B000007EFB4011630001312011C90001FE091
:1002AB0030E0157F017E0012000E800C900020E4E0
:1002BB00F090001FE054FEF0309905C2991202E64F
:1002CB00D007D006D005D004D003D002D001D00087
:0B02DB00D0D0D082D083D0F0D0E03231
:1004FA00E4FE7D80EDD39400400BEF5D60010EEDCC
:10050A00C313FD80EFEE24FE601024FE600C24FE6F
:0F051A00600824FE6004240870037F01227F0024
:0105290022AF
:1005A200E4FFFE12000E90001FE054FDFFF0E4F5A0
:1005B20010C2B4D29CA3F0900023F0EF54FE90003E
:0305C2001FF02205
:10000E00EE7007EF147003D28C22C28CE4F58AF5E1
:02001E008C2232
:1002E60090001FE0FB30E14290001CE0FF900021EF
:1002F600E0FED39F502374102EF8E6FF1204FAACEA
:1003060007ECB40104D29B8002C29B900021E0243A
:1003160010F8E6F599E004F022EB54FD90001FF08A
:10032600E4F510F510C2B4D29C22E5106029C29CF7
:10033600D2B490001CF090001FE04402F0AF1112FE
:1003460004FAAC07ECB40104D29B8002C29B85116F
:07035600999000217402F0F0
:01035D00227D
:10011C00900020E07027120482EF4E607090002354
:10012C00E0606A900022E0FF900020E02408F8A62E
:10013C0007E004F090001FE04401F0805090002094
:10014C00E0640170291205F7EF4E6010900022E078
:10015C00FF900020E02408F8A607802EE4900020F1
:10016C00F0900023F090001FE054FEF0801F9000F0
:10017C0023E0FF900020E0FED39F5011900022E07E
:10018C00FF74082EF8A607900020E004F0900023DE
:10019C00E0FF900020E0D39F402BE4FF74082FF881
:1001AC00E6FE74092FF582E43400F583EEF0E4F6F4
:1001BC000FEFB408E7E4900020F0900023F09000DB
:0501CC001FE054FEF0ED
:0101D100220B
:1005F700E4FFFEE590F45407FD900022E0B5050105
:010607000FE3
:0106080022CF
:10048200E4900011F0A3F0900022E0240B600F240E
:10049200F76004240E701790002374018005900009
:1004A200237403F0900011E4F0A304F0800BE490B5
:1004B2000023F0900011F0A3F0900011E0FEA3E001
:0104C200FF3A
:0104C3002216
:03000B000204C428
:1004C400C0E0C083C082C0D075D000C007C28C75A4
:1004D4008AFF758CF090001FE0FF30E00EA3E4F07B
:1004E400900023F0EF54FE90001FF0D007D0D0D03E
:0604F40082D083D0E0324B
:10043D00900013EBF0A3EAF0A3E9F0900013E0FBBA
:10044D00A3E0FAA3E0F912035E240B600B24F7601E
:10045D001A240E701F020661900013E0FBA3E0FA50
:10046D00A3E02401F9E43AFA0203D07BFF7A007984
:05047D0003120026221D
:1005DF009000007403F0E590F45407A3F0A3740D9A
:0805EF00F0A3740AF002052AD2
:07066100E4FDFFFE02055657
:0B03D000900016EBF0A3EAF0A3E9F0A8
:1003DB00E4A3F0A3F090001775F0011203A49000B2
:1003EB0016E0FBA3E475F0011203BAA9F0FA1203AD
:1003FB005EFF900019E4F0A3EFF0900016E0FBA372
:10040B00E475F0011203BAA9F0FA12035E75F0401D
:10041B00A4FFE5F0540FFEEF54C0FF900019E04E1F
:10042B00F0A3E04FF0900019E0FEA3E0FF7D0D027A
:02043B00055664
:0B002600900016EBF0A3EAF0A3E9F055
:1000310090001FE030E10302011BE4900019F090F1
:100041000000E0600302011B900019E0FF04F0745E
:10005100002FF582E43400F5837406F0900019E076
:10006100FF04F074002FF582E43400F58374FEF090
:10007100E590F45407FF900019E0FE04F074002E9F
:10008100F582E43400F583EFF0E490001AF090007B
:100091001AE0C394065059900016E0FBA3E0FAA3BE
:1000A100E0F990001AE0FFF582758300120377C42E
:1000B10054F090001BF0E0FEEFFD7C00E92DF9EC1F
:1000C1003AFA900001120377540FFFEE4FFF9000B0
:1000D1001BF0900019E02400F582E43400F583EF71
:1000E100F090001AE02402F0900019E004F0809EE4
:1000F100900016E0FBA3E0FAA3E0F990001AE0F506
:1001010082758300120377FF900019E02400F582C5
:0A011100E43400F583EFF012052A34
:01011B0022C1
:10052A00E5107027FF900000E0FEEFD39E5015748F
:10053A00002FF582E43400F583E0FE74102FF8A64C
:0B054A00060F80E1E4900000F0D29961
:010555002283
:030000000201D228
:0C01D200787FE4F6D8FD75812002021948
:10035E00BB010689828A83E0225002E722BBFE029D
:09036E00E32289828A83E49322D0
:10037700BB010CE58229F582E5833AF583E022503B
:1003870006E92582F8E622BBFE06E92582F8E22285
:0D039700E58229F582E5833AF583E493229F
:1003A400C5F0F8A3E028F0C5F0F8E58215827002E4
:0603B4001583E038F02281
:1003BA00A3F8E0C5F025F0F0E582158270021583F6
:0603CA00E0C838F0E82253
:1001DE0002057FE493A3F8E493A34003F68001F2B3
:1001EE0008DFF48029E493A3F85407240CC8C33322
:1001FE00C4540F4420C8834004F456800146F6DFF1
:10020E00E4800B01020408102040809005C5E47EB6
:10021E00019360BCA3FF543F30E509541FFEE493E5
:10022E00A360010ECF54C025E060A840B8E493A3AC
:10023E00FAE493A3F8E493A3C8C582C8CAC583CAD7
:10024E00F0A3C8C582C8CAC583CADFE9DEE780BE8F
:0105DE00001C
:00000001FF
